:020000040800F2
:10000000C093002045010008E9200008CB1C00082F
:10001000E520000805150008513000080000000028
:100020000000000000000000000000009D25000806
:10003000391700080000000015220008B927000841
:1000400073300008F12100082128000893250008DA
:10005000B9180008D9240008CD170008D1170008E6
:10006000D3170008E9170008EB1700080915000866
:100070001F15000821150008231500082515000884
:1000800027150008291500083D1000085F01000829
:100090005F0100085F0100085F010008ED1700081C
:1000A00023280008292800082728000825280008F8
:1000B0002B2800084528000847280008D11C000804
:1000C000CF1C0008D51C0008D31C00089725000889
:1000D00099250008592B0008212C0008712C0008D4
:1000E000CF17000891250008FB2E00084F280008B4
:1000F000552800085328000851280008E911000875
:10010000BB18000895250008492800089B25000811
:10011000112A0008152A00084B2800084D2800085D
:100120002B1500082D1500082F15000831150008A3
:10013000DFF80CD000F034FF004800473D480008CD
:10014000C09300200648804706480047FEE7FEE7C8
:10015000FEE7FEE7FEE7FEE7FEE7FEE7FEE7FEE777
:10016000C1270008310100082DE9F04F4FF0000CC5
:100170004FF0000301EB1C6EBEF90250BEF90040C7
:100180000EF5807EBEF90290BEF900800EF5807EED
:10019000BEF90270BEF900600EF5807EBEF902B0B5
:1001A000BEF900A00EF5807ED044D944A8EB4A0ADF
:1001B000A9EB4B0B4FEAA4044FEAA50504EBA604F8
:1001C00005EBA705A4EB6606A5EB670704EBA804FF
:1001D00005EBA905A4EB6808A5EB690906EBAB06DE
:1001E000A7EBAA07A6EB6B0B07EB6A0A458020F882
:1001F000044B478020F8046BA0F8029020F8048B91
:10020000A0F802A020F804BB03F1010393FAA3FCB9
:10021000402BAFD1A0EB82014FF0100312090FF277
:10022000361000F1000006B403EB430C6144A2F564
:10023000803202EB8332B1F90250B1F90040A1EBF8
:100240000301B0F902B0B0F900A000F10400A5EB81
:10025000040E0EFB0BFC0AEB4B0E05FB0ACB04FB5A
:100260000ECAB1F90250B1F90040A1EB0301B0F997
:100270000290B0F9008000F10400A5EB040E0EFB23
:1002800009FC08EB490E05FB08C904FB0EC8B1F9CF
:100290000250B1F90040A1EB0301B0F90270B0F9CE
:1002A000006000F10400A5EB040E0EFB07FC06EB5A
:1002B000470E05FB06C704FB0EC6B1F90250B1F9A3
:1002C000004001F10001D044D944A8EB4A0AA9EB4F
:1002D0004B0B4FEAA4044FEAA50504EB264405EBBB
:1002E0002745A4EBE636A5EBE73704EB284405EBFE
:1002F0002945A4EBE838A5EBE93906EB2B46A7EB3B
:100300002A47A6EBEB3B07EBEA3A4D800C801944F9
:100310004F800E801944A1F80290A1F80080194482
:10032000A1F802A021F804BBB2F5803283DA03EB16
:10033000430C6144A2F101025FEA024E18BFA0EB38
:100340000C007FF476AF06BC4FEA830392087FF47B
:100350006AAFBDE8F08F00400000004000000040A0
:1003600000005DDD213BA3227E180000412D7EA50B
:10037000412D0000412D00C000405DDD82E75DDDC4
:10038000213B7EA5412D00400000004000000040C0
:100390000000AA2A94126B39460649327C0CA81137
:1003A0008E2349327C0CA3227E1821F77931AA2AA8
:1003B0009412A8118E235DDD213BA3227E1800003C
:1003C000412D95C6B13F461A2B1E58EE3735BEB4A7
:1003D000C53EA8118E235DDD213B63A97138DF087E
:1003E0009A28B7CDC53E7EA5412D0000412D00C005
:1003F000004063A92B1E21F77931BEB4C53EBEB4BF
:100400007C0C58EE373561AC213B95C6BAF9BAE59C
:1004100071383BA737355DDD82E75DDD213B7EA589
:10042000412D21F766D756D53F3D3BA78E23A81116
:10043000C9CAB7CDC53E61AC7E18AA2AC1C295C64D
:10044000B13FBEB47C0C0040000000400000004002
:1004500000001E3BB504693E9201C83C2403EB3505
:100460006409C83C24036B3946066C30060E1E3BFB
:10047000B504EB356409AA2A94126B394606493251
:100480007C0CAE240917AF37D607882E8D0F7E1E41
:100490005D1BEB356409AA2A941224188C1F1E34A4
:1004A000F10AB3269015A8118E2349327C0CA322A1
:1004B0007E18140B60276C30060E7E1E5D1B7104C7
:1004C000FB2A882E8D0F461A2B1EC7FD5A2E9D2CF7
:1004D0001211FE15E72021F77931AA2A9412A811EA
:1004E0008E2387F05334B2281314480D202602EAD5
:1004F000E536B3269015DF089A289CE32B39AE2405
:1005000009177104FB2A5DDD213BA3227E18000040
:10051000412D4ED7C53C9320EF198FFB6C2F78D11E
:10052000153E7E1E5D1B21F77931E2CB0F3F641C27
:10053000C61CB8F2683395C6B13F461A2B1E58EE5A
:10054000373597C1FB3F24188C1F02EAE536F0BC13
:10055000EC3FFE15E720BAE57138A6B8853FD51304
:100560003D2282E1DB39BEB4C53EA8118E235DDD9C
:10057000213B40B1AF3D790FDA244DD9423C2EAE3C
:10058000423C480D202656D53F3D8EAB823A140B97
:10059000602778D1153E63A97138DF089A28B7CD56
:1005A000C53EB1A71236A906CE2915CA4F3F78A677
:1005B00068337104FB2A95C6B13FBCA57630390279
:1005C000212C38C3EC3F7EA5412D0000412D00C0F9
:1005D0000040BCA5CE29C7FD5A2EF0BCEC3F78A642
:1005E00020268FFB6C2F09BAB13FB1A73D2257F9E6
:1005F00076304DB74F3F63A92B1E21F77931BEB43A
:10060000C53E8EABEF19ECF474325EB2153E2EAEE1
:100610009015B8F268332DB03F3D40B1121187F00C
:1006200053342EAE423CBEB47C0C58EE373561AC30
:10063000213BA6B8D6072BEC1236C8AADB39F0BC92
:10064000240302EAE53663A9713897C16EFEDCE740
:10065000B03734A8E53695C6BAF9BAE571383BA784
:100660003735E2CB0FF59CE32B3978A6683378D188
:1006700073F082E1DB39EDA579314ED7EDEB6DDF1B
:10068000823A99A56C2F5DDD82E75DDD213B7EA579
:10069000412D9CE33AE352DBB63B99A5FB2A02EAE3
:1006A00019DF4DD9423CEDA59A2887F026DB4ED7BD
:1006B000C53C78A6202621F766D756D53F3D3BA7F7
:1006C0008E23C7FDDFD363D3AF3D34A8E720710489
:1006D00094D078D1153E63A92B1E140B8CCD94CFEA
:1006E000723EC8AA5D1BA811C9CAB7CDC53E61AC90
:1006F0007E18241850C8E2CB0F3F2EAE90157E1EF8
:1007000025C615CA4F3F2DB09412AE244AC451C815
:10071000853F5EB28D0FAA2AC1C295C6B13FBEB455
:100720007C0C6C308EC1E2C4D43F4DB76409EB350C
:10073000B1C038C3EC3F09BA46061E3B2CC097C176
:10074000FB3FF0BC240340EA01039B0703D009E010
:1007500008C9121F08C0042AFAD203E011F8013BAD
:1007600000F8013B521EF9D27047D2B201E000F806
:10077000012B491EFBD270470022F6E710B5134645
:100780000A4604461946FFF7F0FF204610BDF0B4B4
:1007900080EA0102D40F4200B2EB410F02D20246BE
:1007A000084611464A0042D0C30DDDB2C1F3C7521C
:1007B000AD1A202D35DAC1F3160141F4000204B15F
:1007C0005242C5F1200602FA06F12A411044B3EB69
:1007D000D05F23D0C4B1012DA0EBC35009DCF0BC25
:1007E0004FF0004202EAC352DBB200F5000000F015
:1007F00061BA400000F1807000EBC350A0F180703E
:1008000040EAD170490009E0490841EAC071A0EB13
:10081000C35000F50000400800EBC350F0BC00F0EE
:1008200040BA6142012202EB4101001BF6E7F0BC35
:10083000704781F00041AAE780F00040A7E780EA16
:10084000010210B502F00043400022D04A001FD040
:10085000010E01EB1261C0F35600C2F3560240F4E0
:10086000000042F40002A0FB022000047F391404BF
:1008700000D0401C50EA124001D44000491EC2B2D0
:100880000C0604EBD010401C4008802A02D003E084
:10089000002010BD20F00100002900DA00201843DC
:1008A00010BD30B480EA010202F0004530F0004291
:1008B00021F0004013D090B1C30DD40DC2F3160146
:1008C000C0F31600E41A41F4000140F400027D3444
:1008D000914201D3641C00E04900002C02DA30BCD4
:1008E000002070474FF400000023914201D3891A81
:1008F000034340084FEA4101F7D151B1914202D17F
:100900004FF0004105E002D24FF0010101E06FF02D
:10091000010103EBC450284430BC00F0C2B92DE9FA
:10092000FE4F804681EA0300C00F0C46009021F084
:10093000004123F00045B8EB0200A94105D2404632
:10094000214690461C460B46024623F000401043C9
:1009500047D0270DC7F30A00C3F30A510290401A8B
:10096000019040286BDAC3F3130040F4801B009819
:10097000924620B10023D2EB030A63EB0B0B0198E4
:100980005946C0F14002504600F06AF906460D464D
:1009900050465946019A00F072F910EB0800614187
:1009A000002487EA115284EAE7731A4340D0009A80
:1009B00062B3019A012A4FEA075215DC001B61EB72
:1009C00002014FF0004202EA0752CDE90042001C4A
:1009D00041F5801132462B4600F0A9F903B0BDE87D
:1009E000F08F40462146F9E7001B61EB0201001C35
:1009F00041F5801300185B412018A2F5001747EB62
:100A0000030140EAD570B6196D4111E06D084FEA57
:100A1000360645EAC0754FEA0752001B61EB02013A
:100A2000001C41F5801149084FEA3000001951417E
:100A300032462B4603B0BDE8F04F00F069B900988C
:100A4000012240000023D0EB020263EBE073009828
:100A500021464FEAE074B8EB000061EB0401E9E7DE
:100A600083F000435BE781F0004158E72DE9F04D4A
:100A700081EA030404F0004B21F0004514464FF0D6
:100A8000000A23F0004150EA050220D054EA010296
:100A90001DD0C5F30A570246C5F31303C1F3130073
:100AA000C1F30A5640F4801543F48013A7EB0608FF
:100AB000101BD64608F2FD3873EB050002D308F18F
:100AC000010801E092185B41B8F1000F03DA002041
:100AD0000146BDE8F08D00204FF4801106468446A3
:100AE0000EE0171B73EB050705D3121B63EB050321
:100AF00006434CEA010C49084FEA300092185B416A
:100B000050EA0107EDD152EA030012D082EA040054
:100B100083EA0501084305D0101BAB4106D2012230
:100B2000002306E000224FF0004302E06FF00102D4
:100B300053101AEB06004CEB085110EB0A0041EB86
:100B40000B01BDE8F04D00F0E3B8C10F80EAE070A2
:100B50000844CA079623002100F0ACB8962300226F
:100B6000114600F0A7B820F00040C10DC0F31600F8
:100B700040F400007F2901DA00207047962903DC49
:100B8000C1F19601C840704796398840704700F01F
:100B9000004230F000400AD0C10D01F56071C0F391
:100BA000160042EA0151C208400711437047002075
:100BB0000146704730B5041E71F1000404DB4FF0AC
:100BC0000044404264EB0101141E73F1000405DB94
:100BD0001C464FF00043524263EB04038B4208BFB4
:100BE000824230BD30B5041E71F1000404DB4FF0C9
:100BF0000044404264EB0101141E73F1000405DB64
:100C00001C464FF00043524263EB0403994208BF75
:100C1000904230BD01F0004330B421F0004150EA71
:100C2000010206D00A0DA2F56072C1F31301002A79
:100C300002DC30BC00207047440F44EAC104C1000C
:100C4000E01830BC00EBC25000F02BB8002801DBEC
:100C5000C0F10040002901DBC1F100418142704731
:100C6000202A04DB203A00FA02F10020704791406C
:100C7000C2F1200320FA03F3194390407047202A61
:100C800006DBCB17203A41FA02F043EAE07306E0B4
:100C900041FA02F3D040C2F12002914008431946C4
:100CA00070470029A8BF7047401C490008BF20F0CA
:100CB0000100704710B4B0FA80FC00FA0CF050EA62
:100CC000010404BF10BC704749B1CCF1200421FAE3
:100CD00004F411FA0CF118BF012121430843A3EBDE
:100CE0000C01CB1D4FEA00614FEA102042BF0020EB
:100CF00010BC704700EBC35010440029A4BF10BCC7
:100D00007047401C490008BF20F0010010BC70472C
:100D100010B5141E73F1000408DA401C41F1000103
:100D200092185B411A4301D120F0010010BD2DE95A
:100D3000F04D92469B4611B1B1FA81F202E0B0FA51
:100D400080F220329046FFF78BFF04460F4640EAC0
:100D50000A0041EA0B0153465A46084313D0114694
:100D600053EA010019D0C8F14002504600F02AF9B8
:100D700005460E46504659464246FFF771FF084366
:100D800005D0012004E020463946BDE8F08D002062
:100D9000054346EAE0762C4337430A986305E40AA4
:100DA000A0EB08000022FD0A44EA47540A3002D5AD
:100DB00000200146E9E7010510196941DDE9084510
:100DC00000196941BDE8F04DA2E72DE9FE4F81EA27
:100DD000030404F0004421F0004100944FF0000BA4
:100DE00023F0004350EA01045ED052EA03045BD0D2
:100DF000C3F30A54C1F30A552C44A4F2F33401940A
:100E0000A0FB0254C1F3130141F48011C3F3130397
:100E100043F4801301FB024400FB034E840A970A4B
:100E200044EA815447EA8357A4FB076802958D0A78
:100E300005FB07854FEA932C04FB0C542705029D04
:100E40004FEA065847EA1637B5EB08056EEB070C74
:100E5000870E920E47EA811742EA8312A7FB02012E
:100E6000B6EB0B0164EB00042B0D43EA0C335E1868
:100E700044EB1C50DA465146E7FB0201C5F313046C
:100E80004FEA0B3343EA14534FEA0432019C43EA1E
:100E90000603A4F10C040294009CCDE900B4FFF712
:100EA00046FF03B0BDE8F08F00200146F9E770B5BA
:100EB00021F0004303430CD0C1F30A550024D5EBC5
:100EC000040564EB0403D617AD1AB34102DB00201E
:100ED000014670BD201841EB025170BD2DE9F04D67
:100EE00000231A461B1A8A4103DB00200146BDE895
:100EF000F08DC1F30A52C1F3130141F480154FF094
:100F0000000BD10702D100186D41521E0027044684
:100F100040F2FF11384601EB620A3E468046024627
:100F200000204FF4801100F04DF8C2197141BB1838
:100F300046EB0100B4EB030C75EB000C04D3E41A90
:100F400065EB000517460E46241908F101006D41B6
:100F500080463428E3DDF91946EB0600091BA84159
:100F600003D24FF0FF32134601E0002213461BEB81
:100F7000070046EB0A51BDE8F04DFFF7C9BE0EB5BC
:100F8000C10F80EAE0700844CA07002140F23343F1
:100F90008DE80E000A460B46FFF7C9FE03B000BD00
:100FA000064C074D06E0E06840F0010394E80700B6
:100FB00098471034AC42F6D3FFF7BEF8E05800086B
:100FC00000590008202A04DB203A21FA02F000210F
:100FD000704721FA02F3D040C2F120029140084349
:100FE0001946704770B58C1810F8015B15F00703AF
:100FF00001D110F8013B2A1106D110F8012B03E0B2
:1010000010F8016B01F8016B5B1EF9D12B0705D4B9
:101010000023521E0DD401F8013BFAE710F8013B02
:10102000CB1A921C03E013F8015B01F8015B521E1E
:10103000F9D5A142D8D3002070BD000010B50348F7
:1010400000F03FF90249088010BD0000002801406F
:101050004000002000B591B00121480201F008F9DC
:101060004FF4004001F0D8F85C4800F0DFF80020B1
:10107000019001208DF808008DF809004FF46020E0
:101080000390002004900C208DF8140001A953480F
:1010900000F034F9032301220021504800F0A3F9A5
:1010A0000323022201214D4800F09DF903231A4633
:1010B00002214A4800F097F90323042219464748C1
:1010C00000F091F9032305220421444800F08BF934
:1010D000032306220521414800F085F90323072256
:1010E00006213E4800F07FF90323082207213B48F0
:1010F00000F079F9032309220E21384800F073F932
:1011000003230A220F21354800F06DF903230B2237
:101110000821324800F067F903230C2209212F48E7
:1011200000F061F901212D4800F051F90723012257
:101130000D212A4800F00AF94FF4E041274800F059
:10114000AEF80021254800F09FF80021234800F068
:101150004CF80121214800F05EF801211F4800F001
:101160004FF81E4800F09BF900BF1C4800F0BBF888
:101170000028FAD1194800F0ADF900BF174800F077
:1011800096F80028FAD10121084601F051F81448D8
:1011900000F0EAF911484C30069012480790002000
:1011A00008900C20099000200A9080200B904000AD
:1011B0000C9080000D9020200E9000020F900020D7
:1011C000109006A9064800F094FA01220221044872
:1011D00000F086FA00F084F911B000BD002401404F
:1011E00008000240FC330020704721B1426842F4FD
:1011F0008062426003E0426822F48062426070478D
:1012000021B1826842F00102826003E0826822F02C
:1012100001028260704721B1826842F4807282606C
:1012200003E0826822F480728260704710B5044641
:101230001248844208D10121401501F029F800210B
:10124000601501F025F817E00D48844208D101210E
:10125000001501F01DF80021201501F019F80BE030
:101260000848844208D10121C80301F011F8002187
:101270004FF4004001F00CF810BD000000240140C4
:1012800000280140003C014021B1826842F4004244
:10129000826003E0826822F40042826070470A465E
:1012A0000021816821F4E0411143816070470146CB
:1012B00000208A6802F004020AB1012000E0002048
:1012C00070470146C86C80B2704708B502460020DE
:1012D0000090009201F12800009B184400900098B3
:1012E000006880B208BD014600208A6802F008024A
:1012F0000AB1012000E000207047000030B502462E
:101300000020002350680F4C20400D790C6844EAFF
:1013100005242043506090680B4C2040D1E90254D2
:101320002C434D7944EA450420439060D06A20F470
:1013300070000C7C641EE4B2234340EA0350D06288
:1013400030BD0000FFFEF0FFFDF7F1FFF0B50446F1
:101350001546002000220026092911DDE068A1F1D0
:101360000A0707EB470C072707FA0CF29043A1F195
:101370000A0707EB470703FA07F21043E0600CE0A7
:10138000206901EB410C072707FA0CF2904301EBAF
:10139000410703FA07F210432061A06BC0F3015626
:1013A000EF1C06F1010CA7EB0C0707EB870C1F27BE
:1013B00007FA0CF29043EF1C06F1010CA7EB0C07A7
:1013C00007EB870701FA07F21043A063F0BD10B5E1
:1013D0000A4600210023816B21F44011531E41EA8B
:1013E0000351816310BDF0B504460D460020002175
:1013F000092D11DDE068A5F10A0606EB4607072670
:1014000006FA07F18843A5F10A0606EB460603FA39
:1014100006F10843E0600CE0206905EB450707266C
:1014200006FA07F1884305EB450603FA06F108437F
:101430002061072A0FDA606B561E06EB86071F260F
:1014400006FA07F18843561E06EB860605FA06F1F2
:101450000843606322E00D2A0FDA206BD61F06EBEB
:1014600086071F2606FA07F18843D61F06EB860675
:1014700005FA06F10843206310E0E06AA2F10D06C8
:1014800006EB86071F2606FA07F18843A2F10D0630
:1014900006EB860605FA06F10843E062F0BD8168B6
:1014A00041F008018160704721B1826842F4A002D6
:1014B000826003E0826822F4A0028260704721B15A
:1014C000826842F40212826003E0826822F402120F
:1014D00082607047816841F00401816070470000BC
:1014E00010B50121054800F033F8642002F0F8FB44
:1014F00001210348FFF7D8FF10BD0000080002409B
:101500000024014000BFFEE710B5022000F0D2F831
:1015100008B102F0A1FC022000F00CF810BD7047E9
:101520007047704770477047704770477047704703
:101530007047000000F0805111B10349086001E0DC
:101540000249486070470000040402400000024065
:1015500021B1026842F00102026004E002684FF625
:10156000FE731A400260704701684FF6FE72114028
:1015700001600021016041608160C1604B49884287
:1015800008D14A490839496841F00F01474A083AE9
:1015900051608AE045491431884208D143490839ED
:1015A000496841F0F001414A083A51607DE03F4905
:1015B0002831884208D13D490839496841F47061B1
:1015C0003A4A083A516070E038493C31884208D1C3
:1015D00036490839496841F47041344A083A516043
:1015E00063E032495031884208D1304908394968AE
:1015F00041F470212D4A083A516056E02B4964317C
:10160000884208D129490839496841F47001274ABC
:10161000083A516049E025497831884208D1234988
:101620000839496841F07061204A083A51603CE04D
:101630001F49884206D1011F096841F00F01021FAE
:10164000116032E01A491431884208D11849091F43
:10165000096841F0F001164A121F116025E0144993
:101660002831884208D11249091F096841F4706184
:101670000F4A121F116018E00D493C31884208D111
:101680000B49091F096841F47041094A121F116092
:101690000BE007495031884207D10549091F096805
:1016A00041F47021024A121F116070470800024085
:1016B0000804024001460020002201F0805313B1CB
:1016C000054B1A6801E0054B1A6802EA01030BB1E9
:1016D000012000E0002070470004024000000240AA
:1016E0001AB103680B43036002E003688B43036095
:1016F000704710B50022026847F6F0739A430C6AEF
:101700008B6823430C6923434C6923438C6923432F
:10171000CC6923434C6A23438C6A23431A430260F7
:10172000CB6843600B6883604B68C36010BD10B525
:10173000042003F017F810BD7047000010B56FF0DB
:10174000040001F025F80A4800680A49B0FBF1F0EE
:10175000094908700846007800EB4001C1EBC01051
:101760004FF6FF7101EAC0000449088010BD000077
:101770004C00002000127A003C0000203E000020B7
:101780000146114A12884A434FF0E0235A61002271
:101790009A611A46126942F001021A6100BF4FF0C5
:1017A000E022106900F001021AB100F48032002A30
:1017B000F5D04FF0E022126922F001024FF0E02351
:1017C0001A6100229A6170473E00002070477047FE
:1017D000704710B5042000F011F820B102F06AFF44
:1017E000042000F005F810BD7047704770470000F6
:1017F00001490860704700001404014001460020C0
:101800000022074B1B6803EA0102054B14331B68D7
:101810000B4013B10AB1012000E000207047000026
:1018200000040140002123498279002A3AD00A4667
:10183000126803689A430B461A600A1D126803680F
:101840009A430B1D1A60027911440A6803681A430F
:101850000A60184A0832126803689A43154B083325
:101860001A601A1D126803689A43124B0C331A60EF
:101870004279102A0ED11A1F126803681A430D4BC1
:1018800008331A601A1D126803681A43094B0C3397
:101890001A600DE00749427911440A6803681A4347
:1018A0000A6005E0027911440A6803689A430A60F5
:1018B00070470000000401407047704710B500F009
:1018C0000AFA03F08BFE01F0ADF901F0DBF901F04B
:1018D000F9F91E2003F010FE01F014F9FFF7BAFB2E
:1018E00002F0D4FE10BD000008B501213D2000F03B
:1018F000BFFC01216A4800F089F94FF40070ADF88F
:10190000000018208DF8030003208DF802006946BE
:10191000644800F0EFF84FF48060ADF80000042058
:101920008DF8030069465F4800F0E4F84FF48060EA
:10193000ADF8000018208DF8030003208DF8020098
:101940006946594800F0D6F84FF40060ADF8000041
:1019500004208DF803006946534800F0CBF84FF49B
:101960008060ADF8000018208DF8030003208DF88A
:10197000020069464D4800F0BDF84FF40060ADF834
:10198000000004208DF803006946484800F0B2F8D2
:101990004FF48050ADF8000018208DF803000320AC
:1019A0008DF802006946414800F0A4F80420ADF823
:1019B00000008DF8030069463D4800F09BF84FF4A5
:1019C0008070ADF8000018208DF8030003208DF81A
:1019D00002006946334800F08DF8FF20ADF80000A2
:1019E00000208DF8030069462E4800F083F803209C
:1019F000ADF8000000208DF8030069462A4800F089
:101A000079F83820ADF8000000208DF80300694611
:101A1000264800F06FF84FF40040ADF800001020A9
:101A20008DF8030003208DF8020069461D4800F080
:101A300061F84FF49C70ADF8000010208DF80300A1
:101A40006946194800F056F842F20700ADF8000068
:101A500004208DF8030001208DF802006946134828
:101A600000F048F84FF47070ADF8000028208DF8B1
:101A7000030001208DF8020069460C4800F03AF896
:101A80004FF40041074800F012F93821064800F0F1
:101A90000EF94FF48071044800F00BF908BD000006
:101AA0000002300000080140000C0140001001401D
:101AB0000014014030B500228B071C0F0F2303FADE
:101AC00004F20B4B8C1053F824309343084C8D10C8
:101AD00044F8253023468C1053F824308C07240F0B
:101AE00000FA04F42343024C8D1044F8253030BD35
:101AF000080001402DE9F0410246002500260020A3
:101B000000230024002791F803C00CF00F0591F882
:101B100003C00CF0100CBCF1000F03D091F802C010
:101B20004CEA050591F800C0BCF1000F31D01468F3
:101B300000202BE04FF0010C0CFA00F3B1F800C0CC
:101B40000CEA03069E4220D183004FF00F0C0CFAE2
:101B500003F7BC4305FA03FC4CEA040491F803C004
:101B6000BCF1280F06D14FF0010C0CFA00FCC2F8B2
:101B700014C00AE091F803C0BCF1480F05D14FF042
:101B8000010C0CFA00FCC2F810C0401C0828D1D38C
:101B90001460B1F800C0BCF1FF0F34DD54680020C0
:101BA0002EE000F1080C4FF0010808FA0CF3B1F830
:101BB00000C00CEA03069E4221D183004FF00F0CB7
:101BC0000CFA03F7BC4305FA03FC4CEA040491F851
:101BD00003C0BCF1280F05D100F1080C08FA0CF87D
:101BE000C2F8148091F803C0BCF1480F07D100F18E
:101BF000080C4FF0010808FA0CF8C2F81080401CDD
:101C00000828CED35460BDE8F0810000F0B50A4644
:101C1000002300240021002500F00046B6F1004F0B
:101C200002D11D4EF16901E01B4E7168C0F30345FE
:101C300083B200F44016B6F5401F08D121F0706160
:101C4000154E766826F07066134F7E6012E000F441
:101C50008016B6F5801F06D1032606FA05F4A143C7
:101C600041F0706106E0460D360103FA06F6B14315
:101C700041F0706122B1460D360103FA06F6314398
:101C800000F00046B6F1004F02D1034EF16101E0D1
:101C9000014E7160F0BD00000000014002460020CE
:101CA00093680B400BB1012000E0002070474161B8
:101CB00070470161704710B500F0FAFA00F015FAAC
:101CC000FFF712FEFFF7FAFD10BD00BFFEE77047F9
:101CD00070477047704710B5072000F0FFFB10BD3C
:101CE0002DE9F04107460D460026B04672B60024A5
:101CF00028E0022C03D100202F4908551AE0032CBC
:101D000002D12D48075515E0042C02D12A4805556B
:101D100010E0052C04D1294800782749085509E02E
:101D2000062C03D100202449085503E02448005D17
:101D300021490855012C03DD1F48005D3044C6B21F
:101D4000601CC4B2072CD4DBE12D15D10EE01D4878
:101D500010F80800184908550846005D3044C6B21E
:101D600008F1010000F0FF08601CC4B21A2CEEDB81
:101D7000601E11490E5401E00F480655E12D0BD1AC
:101D8000002406E00C48015D0F4801F063F9601C77
:101D9000C4B21A2CF6DB0AE0002406E00648015D16
:101DA000094801F057F9601CC4B2082CF6DB00F0BA
:101DB00021FA62B6BDE8F081946B00201101002089
:101DC00027010020C81B002000500040FEB505463A
:101DD000002672B6002412E0052C04D01848005DDD
:101DE0000DF8040003E0174800780DF80400012CFA
:101DF00003DD1DF804003044C6B2601CC4B2072CD9
:101E0000EAD309E028780DF804001DF804003044F6
:101E1000C6B26D1C601CC4B20B2CF3DB0DF8046061
:101E2000002406E01DF80410074801F013F9601CB7
:101E3000C4B20C2CF6DB00F0DDF962B6FEBD00008A
:101E40001201002011010020005000402DE9F04750
:101E5000ADF5007D07460C464FF00008C24600264F
:101E6000002572B6E11704EBD151491281B94FF048
:101E700000082046E11704EBD1514912A4EB41219F
:101E80001FFA81FA00225146384600F093F88CE0A0
:101E9000E21704EBD2525212A4EB4222002A35D1AF
:101EA000E21704EBD2525212002A2FDD2046E1172E
:101EB00004EBD151C1F34728A246002623E0701C51
:101EC00000F0FF09002505E038780DF805007F1CBB
:101ED000681C85B2B5F5007FF6DBA8F10100B042C1
:101EE00006D100224FF40071684600F063F808E064
:101EF0004A464FF40071684600F05CF86420FFF732
:101F00003FFC701C86B24645D9DB4EE0E21704EB7D
:101F1000D2525212A4EB4222002A46D0E21704EB1E
:101F2000D2525212002A40DD2046E11704EBD15173
:101F30004912491C01F0FF08E11704EBD151491285
:101F4000A4EB41211FFA81FA00262CE0701C00F05E
:101F5000FF09A8F10100B04214DD002505E0387842
:101F60000DF805007F1C681C85B2B5F5007FF6DB17
:101F70004A464FF40071684600F01CF86420FFF7F1
:101F8000FFFB0EE0002505E038780DF805007F1C0A
:101F9000681C85B25545F7DB00225146684600F0C3
:101FA00009F8701C86B24645D0DB62B60DF5007D9F
:101FB000BDE8F0872DE9F04106460D469046002722
:101FC00000242AE02648005D26490855022C06D048
:101FD000032C08D0052C09D0062C10D10BE0280AC0
:101FE0002049085510E01F490D550DE01E480078A6
:101FF0001C49085508E01B4800F8048004E0184814
:10200000005D1849085500BF00BF012C03DD1548CD
:10201000005D3844C7B2601C84B2072CD2D309E0FB
:1020200016F8010B0F4908550846005D3844C7B241
:10203000601C84B2E81DA042F2DC0A480755002467
:1020400006E00848015D094801F004F8601C84B20C
:1020500005F10800A042F4DC00F0CCF8BDE8F08106
:102060002001002094690020110100200050004050
:102070007CB5002572B601201649087000240CE0DA
:10208000052C04D01448005D0DF8040003E013484B
:1020900000780DF80400601CC4B2082CF0D30224B0
:1020A00005E01DF804002844C5B2601CC4B2072C2A
:1020B000F7D30DF80450002406E01DF8041008487A
:1020C00000F0C8FF601CC4B2082CF6DB00F092F8E8
:1020D00062B67CBD3A0000201901002011010020E9
:1020E0000050004000BFFEE7704708B54FF4A06005
:1020F00000F074F835208DF8000000208DF8010004
:102100008DF8020001208DF80300684600F02EF8DB
:102110000B208DF8000001208DF8010000208DF8C3
:10212000020001208DF80300684600F01FF825200A
:102130008DF8000002208DF8010000208DF80200CB
:1021400001208DF80300684600F010F81C208DF87F
:10215000000003208DF8010000208DF8020001200E
:102160008DF80300684600F001F808BD70B5002145
:1021700000230F22C47804B3154C246804F4E064EF
:10218000C4F5E064210AC1F10403CA40447804FAAA
:1021900003F184781440214309010E4C0678A155BF
:1021A000047804F01F050124AC4005786D11AD00E2
:1021B00005F1E025C5F8004109E0047804F01F05A9
:1021C0000124AC40044D0678761145F8264070BDD8
:1021D0000CED00E000E400E080E100E00249014392
:1021E000024A1160704700000000FA050CED00E0A3
:1021F0007047000006480078FF2805DA0448007898
:10220000401C0349087002E0012001490870704732
:10221000110100207047000001460020034A506869
:1022200020F4404008435060704700000010024016
:1022300029B1064A52690243044B5A6104E0034A39
:1022400052698243014B5A617047000000100240FE
:1022500029B1064AD2690243044BDA6104E0034A19
:10226000D2698243014BDA617047000000100240DE
:1022700029B1064A92690243044B9A6104E0034A79
:1022800092698243014B9A6170470000001002403E
:1022900029B1064AD2680243044BDA6004E0034ADB
:1022A000D2688243014BDA607047000000100240A0
:1022B00010B500F029F84FF4803000F0E7F800F096
:1022C0004BF90446012C1ED1002000F0D3F8002069
:1022D00000F016F9A00200F007F94FF4E011200415
:1022E00000F020F9012000F017F900BF392000F0BC
:1022F0009BF80028FAD0022000F022F900BF00F07D
:10230000B1F80828FBD110BD0F48006840F001006B
:102310000D490860084640680C4908400A49486071
:10232000084600680A4908400749086008460068EE
:1023300020F4802008600846406820F4FE004860D1
:102340004FF41F0088607047001002400000FFF843
:10235000FFFFF6FE30B500210022002400232D4DA2
:102360006D6805F00C0121B1042905D0082923D19D
:1023700005E0294D056022E0274D05601FE0254D51
:102380006D6805F47012234D6D6805F480340225E4
:1023900005EB92421CB9214D554305600BE01D4DE4
:1023A0006D6805F400351DB11C4D5543056002E014
:1023B000194D5543056002E0174D056000BF00BF91
:1023C000144D6D6805F0F0010909154D6B5C056849
:1023D000DD4045600F4D6D6805F4E061090A104D60
:1023E0006B5C4568DD4085600A4D6D6805F46051A1
:1023F000C90A0B4D6B5C4568DD40C560054D6D68D5
:1024000005F44041890B074D6B5CC568B5FBF3F5DE
:10241000056130BD0010024000127A0000093D0045
:10242000600000207000002010B50146002200234B
:1024300000204A11012A02D1094C236806E0022A31
:1024400002D1074C236A01E0054C636A01F01F02C8
:10245000012494401C400CB1012000E0002010BD7C
:10246000001002400248406800F00C007047000075
:102470000010024001460020034A506820F0F0009E
:10248000084350607047000000100240114909687D
:1024900021F480310F4A11601146096821F480212E
:1024A0001160B0F5803F03D0B0F5802F0ED106E06B
:1024B0000849096841F48031064A116007E005497E
:1024C000096841F4A021034A116000E000BF00BF89
:1024D0007047000000100240704700000149C871B9
:1024E000704700000010024001460020034A506877
:1024F00020F4E06008435060704700000010024084
:1025000001460020034A506820F4605040EAC100B0
:102510005060704700100240014908667047000093
:102520000000424202460020044B586820F47C1010
:1025300042EA01031843014B586070470010024003
:1025400001460020034A506820F003000843506011
:10255000704700000010024038B5002000900024B1
:10256000002500BF3120FFF75FFF05460098401CA3
:1025700000900098B0F5A06F01D0002DF2D031206E
:10258000FFF752FF08B1012400E00024204638BDC7
:10259000704770477047704770477047704700003A
:1025A0002DE9F84F4FF055084FF0AA0B4FF00009F6
:1025B000C2464A4651461DA000F05CFD00240CE0D6
:1025C0004FF0FF09CA46FF26FF273B464A465146C1
:1025D00018A0009600F04EFD641C0C2CF0DB0024CB
:1025E00016E0002511E0164800EB852030F81400B5
:1025F0004FEA1029124800EB852010F814A04A4633
:1026000051460AA000F036FD6D1C0C2DEBDB641C5E
:10261000B4F5007FE5DB4FF000090BF0FF0A4A46F6
:10262000514602A000F026FDBDE8F88F2563256322
:10263000000000002563256325632563000000007A
:102640007434002010B500F001F810BD0CB5002066
:10265000019000903348006840F4803031490860B0
:1026600000BF3048006800F4003000900198401C22
:102670000190009818B90198B0F5A06FF1D12948E0
:10268000006800F4003010B10120009001E000204B
:1026900000900098012843D12348006840F01000C2
:1026A000214908600846006820F0030008600846D9
:1026B000006840F0020008601A4840681949486004
:1026C0000846406848600846406840F480604860BA
:1026D0000846406820F47C1048600846406840F492
:1026E000E81048600846006840F08070086000BF4D
:1026F0000C48006800F000700028F9D009484068D4
:1027000020F00300074948600846406840F0020096
:10271000486000BF0348406800F00C000828F9D169
:102720000CBD0000001002400020024010B502461F
:10273000F1290AD1002005E0114B1B5C114C2354F8
:10274000431C98B29042F7DB18E0F5290AD100202B
:1027500005E00B4B1B5C0C4C2354431C98B290427D
:10276000F7DB0BE0F42909D1002005E0044B1B5CEA
:10277000064C2354431C98B29042F7DB10BD000076
:10278000C01900200A000020DA1B002012000020DF
:10279000042808D14FF0E021096941F004014FF00D
:1027A000E022116107E04FF0E021096921F0040106
:1027B0004FF0E0221161704710B502F007FF10BD25
:1027C00010B51348006840F0010011490860084640
:1027D0004068104908400E494860084600680E49A4
:1027E00008400B4908600846006820F48020086013
:1027F0000846406820F4FE0048604FF41F008860DF
:10280000FFF720FF4FF000600449086010BD000092
:10281000001002400000FFF8FFFFF6FE08ED00E0A8
:102820007047704770477047704710B5012188079F
:1028300000F020F828B102F0FBFE0121880700F02B
:102840000AF810BD7047704770477047704770476F
:10285000704770477047CA430282704721B10288AF
:1028600042F00102028004E002884FF6FE731A4033
:102870000280704730B50246002000230024158AEC
:1028800005EA0103958905EA010413B10CB10120A1
:1028900000E0002030BD1AB183890B43838102E040
:1028A00083898B4383817047002202881D4B9842A5
:1028B0000ED01D4B98420BD0B0F1804F08D01B4B6F
:1028C000984205D01A4B984202D01A4B984204D134
:1028D0004FF68F731A404B881A43174B984207D014
:1028E000164B984204D04FF6FF431A40CB881A4348
:1028F00002808B8883850B8803850A4B98420BD016
:10290000094B984208D00E4B984205D00D4B984287
:1029100002D00D4B984201D10B7A038601238382AA
:1029200070470000002C01400034014000040040CA
:1029300000080040000C004000100040001400405F
:1029400000400140004401400048014010B50F48DC
:102950000078D0B10E480088401C0D490880084618
:1029600000880C490988884209DD00200849088050
:1029700000F014F808480088401E074908800648FF
:10298000008810B900200149087010BDB000002077
:10299000B2000020B4000020B800002010B51A4892
:1029A0000078042812D01948007838B11648007809
:1029B00001F0D8FE00201549087023E01248007885
:1029C00001F0C0FE0120114908701BE00F4800789B
:1029D00060B1002404E0E0B201F0C4FE601C84B2E7
:1029E000042CF8DB0020094908700BE0002404E007
:1029F000E0B201F0A7FE601C84B2042CF8DB0120D9
:102A00000249087010BD0000B6000020BA00002086
:102A10007047000010B540F22551344800F0A9F984
:102A200000285DD0314800F05FFAC4B23049087820
:102A3000411C2F4A11702F490C5410460078012870
:102A400006D1084600785A2802D0002011460870A6
:102A50002748007802280ED1264800785A2807D146
:102A600024484078A52803D101202349087002E0BA
:102A700000201F49087020480078012830D11C48E8
:102A80000078401E022802D0032814D107E018481D
:102A90000078401E1749085C184908800CE014486B
:102AA0000078401E1349085C1449098800EB012096
:102AB0001249088000E000BF00BF104800880830BD
:102AC0000B49097888420BD10C48008808300C4922
:102AD00008800020094908800549087006490870E7
:102AE0002021024800F01DF910BD000000500040F8
:102AF00046000020C01900204A00002048000020A5
:102B0000040000201FB501218803FFF7B1FB4FF43B
:102B1000E13000900020ADF80400ADF80600ADF8FB
:102B20000800ADF80C000C20ADF80A006946094811
:102B300000F06EF9012240F22551064800F043F9F9
:102B40000121044800F0FCF84021024800F0E0F8C0
:102B50001FBD00000038014010B540F225512B4840
:102B600000F007F9002850D0284800F0BDF92849A6
:102B7000087008460078302809DB084600783928B4
:102B800005DC084600783038224908701AE02048F1
:102B90000078612809DB1E480078662805DC1C489F
:102BA000007857381B4908700CE019480078412814
:102BB00008DB17480078462804DC154800783738C9
:102BC000144908701448007838B91248007813493D
:102BD000087001201049087017E00F48007801289C
:102BE00013D10E4800780007000E0C490870084603
:102BF0000078084909780844084908700020064907
:102C000008700648007802F06DFD10BD00380140E4
:102C10004300002044000020420000204500002026
:102C2000704700001FB501218804FFF711FB4FF426
:102C3000E13000900020ADF80400ADF80600ADF8DA
:102C40000800ADF80C000C20ADF80A0069460748F2
:102C500000F0DEF80121054800F072F8012240F290
:102C60002551024800F0AFF81FBD000000480040A9
:102C700010B540F22551024800F07BF810BD00006D
:102C8000004800401FB50121C804FFF7E1FA4FF4E6
:102C9000165000900020ADF80400ADF80600ADF825
:102CA0000800ADF80C000C20ADF80A006946044895
:102CB00000F0AEF80121024800F042F81FBD00000C
:102CC000004C00401FB501210805FFF7C1FA4FF481
:102CD000E13000900020ADF80400ADF80600ADF83A
:102CE0000800ADF80C000C20ADF80A006946074852
:102CF00000F08EF8012240F22551044800F063F8FC
:102D00000121024800F01CF81FBD000000500040E7
:102D100001F40072B2F5007F00D100BFCA43028007
:102D2000704710B50022002340F66A14A14200D17A
:102D300000BF0A1201249440A3B2DC43048010BDFA
:102D400021B1828942F40052828104E082894DF6E9
:102D5000FF731A408281704702460020B1F5007F60
:102D600000D100BF13880B400BB1012000E0002010
:102D7000704770B50246002400230025002040F66D
:102D80006A16B14200D100BFC1F3421501F01F0322
:102D9000012606FA03F3012D02D19689334006E09D
:102DA000022D02D1168A334001E0968A33400C127C
:102DB000012606FA04F41688344013B10CB1012040
:102DC00000E0002070BDF0B5034600240026002579
:102DD000002040F66A17B94200D100BF1846C1F37F
:102DE000421401F01F06012707FA06F5012C01D154
:102DF0000C3004E0022C01D1103000E014301AB184
:102E000007682F43076002E00768AF430760F0BD23
:102E10002DE9F04786B005460E460024A24600BFC5
:102E2000A1460027B08900B100BF2F462C8A4CF67E
:102E3000FF700440F08804432C82AC894EF6F310F6
:102E40000440B08831890843718908430443AC8148
:102E5000AC8A4FF6FF400440B0890443AC8201A81D
:102E6000FFF778FA1F48874202D1DDF810A001E091
:102E7000DDF80CA0A88900F4004040B10AEBCA00BC
:102E800000EB0A1031684900B0FBF1F807E00AEBEB
:102E9000CA0000EB0A1031688900B0FBF1F8642029
:102EA000B8FBF0F004012009642101FB1089A88916
:102EB00000F4004040B1322000EBC900B0FBF1F05B
:102EC00000F00700044308E0322000EB0910642101
:102ED000B0FBF1F000F00F0004432C8106B0BDE818
:102EE000F08700000038014001468888C0F30800E0
:102EF0007047C1F3080282807047704770B50025A3
:102F0000022405E04848005D284485B2601C84B274
:102F100046480088401EA042F4DCE9B243480088DD
:102F2000401E414A105C81427CD110460079F12854
:102F30000CD006DCE12829D0E2284AD0E3286FD162
:102F400069E0F4281CD0F5286AD105E0F121374862
:102F50000088FFF7EBFB64E0002035490870354935
:102F60003148C01D02680A6082888A808079887131
:102F700008460078000910B900202F49087050E079
:102F8000F4212A480088FFF7D1FB4AE0264840791F
:102F90002A4908702448C07812280DD112222249EB
:102FA000C91D2748FDF7CFFB122225492548FDF70B
:102FB000CAFB0120244908701B48C07820B912229E
:102FC0001F492048FDF7BFFBE1211220FEF788FED4
:102FD00027E015484079194908701C481249C91D55
:102FE0000A68026089888180007813490978B1EB0A
:102FF000101F02D000200E49087014480078000904
:1030000010B900200C490870E2210020FEF768FE8C
:1030100007E007E004E0E3210020FEF761FE00E0A6
:1030200000BF00BF70BD0000C019002004000020D8
:103030003A0000202400002031000020110100206F
:10304000EA1B0020C81B0020390000202B000020B4
:1030500000BFFEE770B504460D4629462046FFF73F
:1030600048FF00BF80212046FFF776FE0028F9D0F8
:1030700070BD70470FB4054B10B503A9044A029800
:1030800000F0A8F810BC5DF814FB00001D43000818
:10309000B8010020490050EAC12018BF04204A0DA1
:1030A00018BF40F0010040F2FF72B2EB515F08BF61
:1030B00040F00200012808BF052070472DE9F041CB
:1030C0004F1E00EBC7010446D1E9000115461E461C
:1030D00037F006020DD02A463346FDF776FE7F1EF6
:1030E00004EBC703D3E90023FDF719FC37F0060210
:1030F000F1D1022F25D0042F13D0062F18BFBDE821
:10310000F0812A463346FDF760FED4E90A23FDF735
:1031100006FC2A463346FDF758FED4E90823FDF79E
:10312000FEFB2A463346FDF750FED4E90623FDF7A1
:10313000F6FB2A463346FDF748FED4E90423FDF7A3
:10314000EEFB2A463346FDF740FED4E90223FDF7A5
:10315000E6FB2A463346FDF738FED4E90023BDE8F6
:10316000F041FDF7DCBB0000002213461046014988
:10317000FDF77CBC0000F03FFDF7D1BB00221346F9
:1031800010461146FDF772BC40F2013200204FF0AC
:10319000E041FDF78CBE0000024A00201107FDF758
:1031A00086BE000001FDFFFF02E008C8121F08C133
:1031B000002AFAD170477047002001E001C1121FB8
:1031C000002AFBD1704700000149086070470000E9
:1031D000BC0100202DE9F84F9946924688460546E5
:1031E000002706E025280AD051464A4690476D1C24
:1031F0007F1C28780028F5D13846BDE8F88F0023D9
:1032000015F8011F18462E2915D115F8011F0423A2
:103210002A290DD06FF02F022978A1F13004092C52
:1032200009D800EB800002EB400008446D1CF3E776
:1032300058F8040B6D1C2A78002ADDD0632A07D0C9
:10324000732A0FD0104651464A4690477F1C2AE009
:1032500018F8042B8DF8002000218DF801106E461F
:10326000012103E058F8046B4FF0FF315A074FF08B
:10327000000401D409E0641C84420BDA8C42FADBBE
:10328000325D002AF7D105E0641C8C42FCDB305D26
:103290000028F9D1274404E016F8010B51464A46AC
:1032A0009047641EF8D26D1CA3E70000014600BFE2
:1032B0000C4A1278002AFBD000200FE00A4A32F8AC
:1032C0001020521A084B23F81020084A32F8102018
:1032D0000A44064B23F81020421C90B20C28EDDB68
:1032E00070470000F20000205C34002044340020CD
:1032F0002DE9F04F8DB082468B4691460020089014
:1033000009900A900B900690079002900390049009
:103310000590019000240CE03AF814006100234A63
:1033200022F811003BF814106000401C22F8101025
:10333000641C4C45F0DBADF830900220ADF8320053
:1033400008AA0CA9194800F033F80898FDF71FFCEB
:10335000074602F0FBF80546FDF75CFC06900B986B
:10336000FDF715FC054602F0F1F80746FDF752FCA3
:10337000079006990846FDF762FA0290DDE906011A
:10338000FDF75DFA0390DDE90610FDF758FA0490A9
:1033900007990846FDF753FA059003990998FDF738
:1033A00080FA019001980DB0BDE8F08FBC7F00203D
:1033B0002DE9F04F8DB080460D4691460024002641
:1033C0000027A24600200A900B9000BF1FE04FF09C
:1033D000000A00260CE0698806FB014138F811005C
:1033E000FDF7BCFB83465146FDF7D1F98246761CBA
:1033F0002888B042EFDC3046FDF7A7FB83465946EC
:103400005046FDF74EFA0AA941F82400641C68886A
:10341000A042DCDC00274EE07C1C48E04FF0000AB4
:10342000002626E0698806FB014138F81100FDF707
:1034300095FB07900AA850F824100798FDF7F9F9B2
:103440000990698806FB017138F81100FDF786FBC9
:1034500007900AA850F827100798FDF7EAF9089096
:103460000999FDF7ECF983465146FDF790F982463C
:10347000761C2888B042D5DC2988481EFDF765FBFC
:10348000834659465046FDF70CFA09EBC70141F84F
:1034900024002988481EFDF758FB834659465046AC
:1034A000FDF7FFF909EBC40141F82700641C6888A7
:1034B000A042B3DC7F1C6888401EB842ACDC00240C
:1034C0003DE04FF0000A002628E0698806FB014134
:1034D00038F81100FDF742FB01900AA850F82410BB
:1034E0000198FDF7A6F98346FDF751FB00224FF046
:1034F0008043CDE9020101F0A5FACDE9060150466D
:10350000FDF745FBCDE90401DDE90623FDF707FAE8
:10351000CDE90801FDF77EFB8246761C2888B04283
:10352000D3DC2988481EFDF710FB834659465046D8
:10353000FDF7B7F909EBC40141F82400641C688861
:10354000A042BEDC0DB0BDE8F08F00002DE9F047D1
:1035500081468A460020FE49486048608860002411
:103560002CE02CB1032C03D0052C01D0062C01D16A
:10357000002621E009EB842000F0FBFD0646F4481C
:103580004068B0420AD2F2484068F1498860084673
:1035900000784870084646600C7007E0EC48806888
:1035A000B04203D2EA48866001464C70072C03D132
:1035B000E7488068E7490860601C84B25445D0DB66
:1035C000E34804780CB1012C03D10120E04988754F
:1035D00032E0022C01D0032C03D10220DC49887593
:1035E0002AE0042C01D0052C03D10320D84988758A
:1035F00022E0062C01D0072C03D10420D449887581
:103600001AE0082C03D10520D149887514E0092C53
:1036100003D10620CE4988750EE00A2C03D107207D
:10362000CB49887508E00B2C03D10820C849887560
:1036300002E00120C6498875C548007809EB802062
:10364000C54908600020C24948750846807D0128A8
:1036500002D149F640452DE0BD48807D022801D1C8
:10366000BE4D27E0BA48807D032801D1BC4D21E042
:10367000B748807D042802D14EF660251AE0B44890
:10368000807D052802D146F2A81513E0B048807D60
:10369000062802D146F2A8150CE0AD48807D072827
:1036A00002D146F2A81505E0A948807D082801D17D
:1036B00046F2A815AB49A848006802F06DF8AA4B7D
:1036C000012240F2FF11A74800F016FBFF21A64897
:1036D00000F0FAFEA5490860FF21A34800F019FF99
:1036E000A3490860A14800680968401A9F4908601A
:1036F0009F480068002804DA9D48006840429C49C1
:1037000008609B480068FDF720FA07469748006864
:10371000FDF71BFA80463946FDF7C3F89549086066
:103720008B4840684CF25031884203D205209249C0
:1037300008700BE0864840689049884203D2042014
:103740008D49087002E003208B4908708A4802788E
:103750008B498148006800F02BFD87480278894931
:103760007D48006800F5007000F022FD802184484B
:1037700000F0BCFE844908808021824800F0B6FE3B
:10378000824908807E4800F06FFE814908607248D7
:10379000006800F0D0FE7F490860794800F03EFEE6
:1037A0007D4908604FF4807276497548FFF7A0FDA7
:1037B0007A4908606848006800F0C0FC78490860F1
:1037C0006548006800F5007000F0B8FC75490860B5
:1037D00008460068FDF7C2F9074671480068FDF722
:1037E000BDF980463946FDF75CF86F4908605848D6
:1037F00041685948006800F0D1FD6C490880604874
:1038000000F0AFFD6A4908805D4800F00BFF694990
:1038100008605B4800F0CEFE67490860594800F038
:10382000C9FE6649086056485749098830F81100B2
:103830006349088008460188514800F081FD6149CC
:1038400008804348007808280EDA42480068FDF7EF
:1038500085F907463E494868FDF780F980463946B4
:10386000FDF71FF85849086000205849087038488B
:10387000007807280ADD53480088072806DA4248FE
:1038800000881C2802DD00200870C3E13948006868
:10389000FDF77DF9074600224D4BFDF78BF955D218
:1038A0002B480078072834DD40480088FF2808DDD1
:1038B0003E480088B0F5BE7F03DA00204349087017
:1038C000A8E13A4800886E2803DA01203F490870D1
:1038D000A0E131480068FDF75AF907463D4A3E4BE2
:1038E000FDF780F911D8324800880C280DDD3248E8
:1038F0000068FDF74CF90746384A394BFDF772F975
:1039000003D201203149087084E100202F4908705A
:1039100080E11F480068FDF73AF907464FF033325F
:10392000304BFDF75FF912D219480068FDF72FF907
:10393000074600222C4BFDF73DF908D214480068D9
:10394000FDF725F90746294A294B53E09EE099E007
:10395000B06B00207C010020300100208038010085
:1039600070110100C86F0020C477002040010020C2
:10397000440100204801002072010020F0490200AB
:10398000C86B0020C86D00203401002036010020E3
:103990004C0100205401002050010020580100205B
:1039A00074010020780100205C0100206E010020DD
:1039B0007001002064010020380100203C0100203B
:1039C0006A0100206C0100206001002068010020D5
:1039D0000000D03FA4703D0AD7A3C03FCDCCCCCCD3
:1039E000CCCCDC3F3333C33F0000E83F0AD7A370A1
:1039F0003D0AC73FFDF7DEF809D28F48406843F61D
:103A00009821884203D900208C49087002E18C4833
:103A10000068FDF7BCF807464FF06632894BFDF7AA
:103A2000C9F809D28448406840F6B831884203D9C1
:103A3000002082490870EDE083480068FDF7A7F890
:103A40000746824A824BFDF7CDF803D200207B491E
:103A50000870DFE07F4980480068FDF7F7F80DD275
:103A60007E4800880A2809DA7348406840F2DC5131
:103A7000884203D9002071490870CBE001206F49CA
:103A80000870C7E000206D490870C3E06A480078FC
:103A900007284FDD72480068FDF779F80746714A3C
:103AA000714BFDF79FF841D270480068FDF76FF841
:103AB00007466F4A6F4BFDF795F803D200205F4928
:103AC0000870A7E066480068FDF761F807466A4A93
:103AD0006A4BFDF76FF816D2694800880F280EDD93
:103AE00068480068FDF753F807464FF03332664BDD
:103AF000FDF778F803D20120504908708AE00020D1
:103B00004E49087086E05F480068FDF740F80746B8
:103B10004FF033325C4BFDF765F803D20120474983
:103B2000087077E000204549087073E000204349A1
:103B300008706FE04A480068FDF729F80746002240
:103B4000524BFDF74FF862D248480068FDF71FF866
:103B500007464F4A4F4BFDF745F803D2002037493F
:103B6000087057E03E480068FDF711F807464FF02F
:103B70003332454BFDF736F80DD23C480068FDF76F
:103B800006F80746444A454BFDF72CF803D20020BF
:103B90002A4908703EE0314800880A2821DA39486D
:103BA0000068FCF7F4FF07463D4A3E4BFDF702F87C
:103BB00013D33D480068FCF7EAFF074600223B4B61
:103BC000FCF7F8FF09D329480068FCF7E0FF074637
:103BD000374A384BFDF706F803D200201749087022
:103BE00018E01E48008807280DDA26480068FCF710
:103BF000CEFF0746284A304BFCF7DCFF03D20020FB
:103C00000E49087006E001200C49087002E000200F
:103C10000A49087009480078012803D102200649A2
:103C2000487506E004484068A84202D901200249CC
:103C300048750148BDE8F087B06B0020680100209E
:103C4000600100206666064058010020295C8FC292
:103C5000F528EC3F000040406401002036010020C0
:103C60004C0100200AD7A3703D0AC73F5401002031
:103C700085EB51B81E85EB3F52B81E85EB51C83F0E
:103C800034010020380100203333E33F0000D03FEF
:103C9000C3F5285C8FC2E53F9A9999999999E13FBC
:103CA000CDCCCCCCCCCCE43F3C0100200000E03FAC
:103CB000E17A14AE47E1E23F9999E93F10B500245B
:103CC000600BFFF7F3FA10BD002106E0002200E0D0
:103CD000521CB2F5257FFBD3491C8142F6D37047B5
:103CE0000021044A1268111800BF024A12688A4271
:103CF000FBD17047A400002070B50446002009E005
:103D0000851854F8255054F82060AD1B43F8205016
:103D1000451CA8B28D1A8542F2DC70BD10B5002496
:103D200000F063FB0446B4F5C37F04DDC821042022
:103D300000F053F81BE0B4F5B97F04DDC82103207F
:103D400000F04BF813E0B4F5B47F04DDC821022085
:103D500000F043F80BE0B4F5AF7F04DDC82101208B
:103D600000F03BF803E0C821002000F036F810BD59
:103D700010B50024C8220121042000F003FD00F04A
:103D800034FB0446B4F5C37F04DDC821042000F0F1
:103D900039F821E0B4F5B97F04DDC821032000F033
:103DA00031F819E0B4F5B47F04DDC821022000F039
:103DB00029F811E0B4F5AF7F07DD0E2000F0F0FD2B
:103DC000C821012000F01EF806E00F2000F0E8FDF9
:103DD000C821002000F016F810BD70B505460E464B
:103DE000002404E0E0B200F0BDFC601C84B2AC42F0
:103DF000F8DB04E0E0B200F0A5FC601C84B2042C07
:103E0000F8DB70BD70B505460E46002404E0E0B254
:103E100000F098FC601C84B2042CF8DB3046FFF7FD
:103E20005FFF3046FFF75CFF002407E0E0B200F0E0
:103E300099FC3046FFF754FF601C84B2AC42F5DBBE
:103E400007E0E0B200F07EFC3046FFF749FF601C5F
:103E500084B2042CF5DB70BD10B586B0002006E0FE
:103E6000A74A32F810202DF81020421C90B20C28DE
:103E7000F6DBA44A1278002A67D0A34A1278002AF7
:103E80007ED0A24A1278002A60D100200EE03DF8D0
:103E9000103000EBC00202EB00129D4C04EB8202DA
:103EA0009C4C248822F81430421C90B20C28EEDB83
:103EB000984A1288521C974B1A801A461288322A46
:103EC00001D100221A8000203DE03DF81020924BE5
:103ED00033F810309A4206DC3DF810208F4B33F84F
:103EE00010309A422DDA002122E0002011E000EB90
:103EF000C00202EB0012864B03EB8202854B1B884B
:103F000032F81320864B03EB802323F81120421C48
:103F100090B20C28EBDB7F4A1288521C7D4B1A8032
:103F20001A461288322A01D100221A804A1C91B204
:103F30003229DADB3222774B1A800122734B1A7056
:103F400003E0421C90B20C28BFDBD7E06F4A127826
:103F5000012AFAD100200AE03DF81020704B03EB53
:103F600080236C4C248823F81420421C90B20C2827
:103F7000F2DB684A1288521C664B1A801A4600E02F
:103F80000CE01288B2F5007FDFD100221A800222F5
:103F90005E4B1A7000225B4B1A70AFE0614A1278D8
:103FA000002A7DD000200AE05F4A52F820203DF828
:103FB00010301A445C4B43F82020421C90B20C286D
:103FC000F2DB00201AE03DF81020584B33F8103097
:103FD0009A4205DA3DF81020544B23F810200BE0EC
:103FE0003DF81020524B33F810309A4204DD3DF872
:103FF00010204F4B23F81020421C90B20C28E2DB1B
:10400000444A1288521C434B1A801A461288B2F551
:10401000807F73D1002042E0434A52F82020C2F34F
:104020000F22444B23F81020414A32F8102033F875
:104030001030D21A3F4B33F810303C4C34F810405B
:104040001B1B9A4207DD3A4A32F81020394B33F8ED
:104050001030D21A06E0374A32F81020334B33F8CA
:104060001030D21A344B23F81020324A32F8102084
:1040700033F81030022404FB13220F3A274B23F8A5
:1040800010202C4A32F810202B4B33F8103004FB50
:1040900003220F32204B23F81020421C90B200E084
:1040A00008E00C28B8DB00221A4B1A800122164BBC
:1040B0001A7023E000200AE01B4A52F820203DF845
:1040C00010301A44184B43F82020421C90B20C28A0
:1040D000F2DB00200BE03DF81020144B23F81020F9
:1040E0003DF81020124B23F81020421C90B20C28EF
:1040F000F1DB0122074B1A800A4B1A7006B010BD83
:10410000FC330020F1000020F2000020F00000202D
:1041100074640020F4000020443400205C3400204B
:1041200074340020F300002024690020546900202A
:104130006C690020143400202C340020F0B50546B2
:10414000284601F029FA060A002700240DE035F878
:104150001400B04203D935F81400801B02E035F892
:104160001400301A0744601C84B2FF2CEFDD38467F
:10417000F0BDF0B505464FF40071284601F018FA7D
:10418000460A002700240DE035F81400B04203D998
:1041900035F81400801B02E035F81400301A07448B
:1041A000601C84B2B4F5007FEEDB3846F0BD000041
:1041B0002DE9F04F89B0834689469246002007904A
:1041C00006905146584600F0CFFB069000240EE0C2
:1041D0003BF8140000FA0AF00699401A00B2079062
:1041E00007980004444941F82400601C84B2FF2C65
:1041F000EEDD4FF4807240494048FBF7B5FF0024E4
:1042000067E03E4830F8240000B23D4908603B4872
:1042100050F8240000143B49086039480068FCF756
:1042200094FC06464FF08741FCF709FB05464FF02A
:104230008E41FCF736FB3449086032480068FCF7D1
:1042400084FC06464FF08741FCF7F9FA05464FF02B
:104250008E41FCF726FB2D4908600846016800687E
:10426000FCF7EDFA0290284801680068FCF7E7FACD
:1042700001900299FCF78BFA0390FCF788FCCDE9DA
:10428000040101F063F907460022214BFCF7EEFB25
:104290000546FCF7BFFC1F49086064B94FF08E412A
:1042A0001C480068FCF7CBFA0546FCF75CFC1A4991
:1042B00041F824000BE04FF08F4116480068FCF7EE
:1042C000BEFA0546FCF74FFC134941F82400601C78
:1042D00084B2FF2C95DD0020A9F80000012406E03F
:1042E0000D4830F8240029F81400601C84B2FF2C1B
:1042F000F6DD09B0BDE8F08FBC830020BC8700204C
:10430000A0010020A4010020A8010020AC01002091
:1043100000007040B0010020BC8B002070B5044646
:104320000D46E1B20548FEF7E4FD00BF80210348D9
:10433000FEF712FD0028F9D0204670BD003801407C
:1043400010B5034649100020002207E033F8124060
:104350008C4201DD441CA0B2541CA2B2802AF5DBC1
:1043600010BD10B502460023002104E032F8110010
:104370000344481C81B28029F8DB5B08002400213B
:1043800008E032F8110004449C4201D9084610BDEF
:10439000481C81B28029F4DB0020F8E72DE9F041C8
:1043A00005460E4676084FF40071284601F000F9E4
:1043B000470A4FF00008002412E035F81400B84214
:1043C00003D935F81400C01B02E035F81400381A80
:1043D0008044B04502D92046BDE8F081601C84B21B
:1043E000B4F5007FE9DB0020F6E770B50024002675
:1043F00000BF00BF05E000F055F8204484B2701CF7
:1044000086B2042EF7DBA4104FF4A57004FB00F570
:104410002D0B4FF6FF7000EA450070BD2DE9F05FEF
:1044200007464FF0FF38002500260BE007EB86100B
:10443000202101F0BDF804462544444500D2A046A1
:10444000701C86B2042EF1DBAD082846FCF786FB13
:1044500082464046FCF782FB83465146FCF721FA30
:1044600081464846BDE8F09F2DE9F04704464E21BD
:1044700004F1640001F09CF806468021204601F01A
:1044800097F807463846FCF769FB80463046FCF74C
:1044900065FB81464146FCF704FA05462846BDE81F
:1044A000F087000010B501210648FDF708F801204B
:1044B000FFF716FC14210348FCF707FF04462046CB
:1044C00010BD00000024014010B502460B464FF01D
:1044D0000040002107E052F82140844201DD52F8FB
:1044E00021004C1CA1B29942F5DB10BD30B502464B
:1044F0000B4600240020002108E032F81150A542AC
:1045000002DD32F8114008464D1CA9B29942F4DB95
:1045100030BD10B502460B466FF00040002107E0A9
:1045200052F82140844201DA52F821004C1CA1B219
:104530009942F5DB10BD2DE9F84F05464FF40071A7
:10454000284601F035F8460A002700240DE035F82A
:104550001400B04203D935F81400801B02E035F88E
:104560001400301A0744601C84B2FF2CEFDDB846FB
:104570000DE035F81400B04203D935F81400801B63
:1045800002E035F81400301A0744601C84B2B4F518
:10459000007FEEDBB9464846FCF7E0FA834640462A
:1045A000FCF7DCFA59460090FCF77BF9824650464E
:1045B000BDE8F88F2DE9F047054600260027B046F4
:1045C00001241EE035F8140005EB440131F8021C0B
:1045D000884214DD35F8140005EB4401498888420F
:1045E0000DDD35F81400B04203DD374635F81460B0
:1045F00005E035F81400B84201DD35F81470601C90
:1046000084B27F2CDEDB3046FCF7A8FA81463846C0
:10461000FCF7A4FA82464946FCF743F98046404637
:10462000BDE8F0872DE9F84F80464FF000094FF0C4
:10463000FF37002518E0002400260BE005EB85007D
:10464000810008F1280000EB410030F81600044416
:10465000701C86B2142EF1DB4C4500D9A146BC4239
:1046600000D22746681C85B2052DE4DB3846FCF7EE
:1046700075FA8346A9EB0700FCF770FA59460090DB
:10468000FCF70FF982465046BDE8F88F1CB50221B1
:104690000320FDF70FFA0420009000208DF804009D
:1046A0000C208DF8050001208DF806006846FDF706
:1046B000B9F81CBD10B54FF4FA720221042000F0C5
:1046C00061F810BD0121114A1170002017E0104956
:1046D000095C91B10F4951F82010491C0D4A42F86C
:1046E0002010114651F820100B4A914205D90021A3
:1046F000084A42F82010064A1154411CC8B2022848
:10470000E5DB0021014A1170704700001001002014
:104710000401002008010020C027090010B504464C
:10472000064A32F81410064A52F82400FDF7B6FA89
:10473000012800D110BD0020FCE70000E0000020AF
:10474000C000002010B50446044A32F81410044A90
:1047500052F82400FDF7ABFA10BD000098000020CD
:104760008000002010B50446044A32F81410044AB0
:1047700052F82400FDF79DFA10BD000098000020BB
:10478000800000202DE9F04107460E4690460024A7
:1047900004E0E0B2FFF7D6FF601C84B2042CF8DB23
:1047A0004046FFF79DFA4046FFF79AFA042F18D0CB
:1047B00000250DE03846FFF7D5FF4046FFF790FA99
:1047C0003846FFF7BFFF4046FFF78AFA681C85B2FC
:1047D000B542EFDB3846FFF7C5FF4046FFF780FAEA
:1047E00029E0002519E0002404E0E0B2FFF7BAFF59
:1047F000601C84B2042CF8DB4046FFF771FA0024F9
:1048000004E0E0B2FFF79EFF601C84B2042CF8DBEA
:104810004046FFF765FA681C85B2B542E3DB002429
:1048200004E0E0B2FFF79EFF601C84B2042CF8DBCA
:104830004046FFF755FABDE8F08100004FF4FA60FA
:10484000FFF742FAFDF737FAFCF778FFFFF790FA27
:10485000FCF76DFFFFF732FAFDF70AFC4FF47A70B0
:10486000FCF78EFF4FF47A70FCF78AFF6BE0364856
:10487000008820B1FEF742FB00203349088033480E
:104880000078002854D13248007802285BD10020FB
:104890003049087000F020FF64224FF6FF710420B9
:1048A00000F0EAFEFDF77CFE0C212B48FEF74EFEE1
:1048B0000446607D60B3FDF7DBFB07E0224800881B
:1048C00020B1FEF71BFB00201F4908802348007819
:1048D0000028F3D11D480078D0B9A07D00122049EE
:1048E0000870A07D4870207888706078C87008468D
:1048F000FDF76CFA2078184A02EB80214FF48062B1
:104900001848FBF720FF4FF4C0511648FDF79EFAF8
:10491000FFF704FA4FF440510F48FBF72DFF00203A
:104920000B49087001200B49087000F0D5FE0AE021
:104930004FF440510848FBF71FFF0020044908705E
:1049400001200449087092E7040000203100002093
:10495000F0000020F1000020743400203A00002014
:1049600006000020C001002030B502460B4600249E
:104970000A4D2C60002108E032F81140074D2D68E7
:104980002C44064D2C604C1CA1B2FF29F4DDC3F170
:104990000805024C246824FA05F030BDB40100205B
:1049A0007CB50646002400250420FFF7B7FE012849
:1049B00002D106F11000C6B20CE004211F4800F03D
:1049C00083FD1F4800F04AFD20B11D48C078012832
:1049D00000D000E0F1E700BFAA222846691CCDB252
:1049E0000DF8002004F1AA00C4B207222846691C71
:1049F000CDB20DF80020E01DC4B202222846691C89
:104A0000CDB20DF80020A01CC4B200222846691CBB
:104A1000CDB20DF8002000BF2846691CCDB20DF8BC
:104A20000060A019C4B22846691CCDB20DF8004040
:104A30002946684600F048FD7CBD0000F457000898
:104A4000846900202DE9F04D1D460C4698B01746AC
:104A500021F0004123F00043002814BF4FF0010C67
:104A60004FF0000C0CEB440CFE4A0CEB02064FEA34
:104A7000620C66452BD33E0018BF012606EB4506A7
:104A80001644F94A964222D3F84A53EA070C02D058
:104A9000944205D148B918B000201146BDE8F08D08
:104AA000002808BF4FF0000C01D04FF0010C0CEBB8
:104AB000440212F5001F0AD8002F14BF4FF0010C5A
:104AC0004FF0000C0CEB450212F5001F07D918B08F
:104AD0003A462B462146BDE8F04DFEF74DBB00227D
:104AE000DFF88CA3002CB8BF534526DADFF884C367
:104AF0006345A8BF022220DADFF870C39C451CDCA6
:104B0000DFF874C30CEB235CBCF1140F08DDCCF1AF
:104B1000340627FA06FC0CFA06F6BE420DD108E070
:104B20005FB9CCF1140623FA06FC0CFA06F69E4295
:104B300003D10CF00102C2F1020251EA000C19D1BA
:104B4000002D17DA002C18BF022A01D0012A07D045
:104B50000220FEF739FB18B0BDE8F04DFEF704BBAC
:104B60000220FEF731FBFEF7FFFA18B081F000419A
:104B7000BDE8F08DB7F1000C6CD1534525D104F19F
:104B8000804212F5801201BF00280020B74918B0FA
:104B900008BFBDE8F08DB548884207DC002DA1BFF5
:104BA0006046294618B0BDE8F08D07E0281E05DAFA
:104BB00080F0004118B06046BDE8F08DAF497944FF
:104BC000D1E9000118B0BDE8F08DDFF8A0C263455F
:104BD00025D1002D1FDA19B1514512D1D8B909E0FC
:104BE000002840F0EC82A24A214618B062F31E0170
:104BF000BDE8F08D0020214618B060F31E01BDE82D
:104C0000F08D08DA18B02346BDE8F04D02460020CA
:104C10006146FBF72BBF18B02146BDE8F08D51452A
:104C200018DAB5F1804F0DD0A5F1005CBCF1FF5C46
:104C300010D1B4F1000C0DDB18B06146BDE8F04DA9
:104C400000F084BC234618B00246BDE8F04D19467A
:104C5000FCF7BBB8060024F0004C3BD1D9B151455C
:104C600033D1002C06DD002DA1BF0020514618B025
:104C7000BDE8F08D002C01DD002D1BDB002C13DACC
:104C8000002D11DB012A4FF0000014BF78497C4948
:104C900018B0BDE8F08D022A18BF002C0AD0012AF6
:104CA00008D1002C06DA0AE0002CB8BF002D11DA7A
:104CB000012A04D0002018B00146BDE8F08D18B0DC
:104CC00000204FF00041BDE8F08DA1F14050B0F15F
:104CD0007F601AD0012000EBE47050EA020421D07A
:104CE000624C521E4FF0000B104304BF4FF0000BFC
:104CF000644C654883427CDD644A654893421FDD0D
:104D0000884217DB002D25DB37E0002C00DA4AB1A2
:104D1000022A0CBF01204FF0FF3018B0BDE8F04D63
:104D2000FCF72DB90120FEF74FFA18B0BDE8F04DA1
:104D3000FEF724BA4D4A8A4202DC002D0ADC1CE050
:104D4000814202DA002D18DA04E0484B994220DD56
:104D5000002D12DD0220FEF737FAFEF715FA0546A0
:104D60000E460022534658462146FCF72EF818B04E
:104D700066F31E012846BDE8F08D0220FEF724FAF6
:104D8000FEF70AFA0A46214618B062F31E01BDE892
:104D9000F08D002230466146FBF762FE80460E46EB
:104DA0006FF00102FCF783F84FF05532394BFBF7F7
:104DB0005AFE42463346FCF708F80022364BFBF712
:104DC00052FE824642463346049110461946FBF78E
:104DD000FCFF5246049BFBF7F8FF8A4600904FF019
:104DE000C0422E4B40463146FBF7EFFF2C4A2B4B7F
:104DF00000E027E0CDE9060151460098FBF7E5FF0A
:104E000082460191274A284B40463146FBF7DDFF99
:104E10005246019BFBF724FE82460B460246059153
:104E2000DDE90601FBF77BFDDDE906230026884668
:104E30003046FBF715FE5246059BFBF714FE024673
:104E400000F07EB90020B1F5801F07DA3522304628
:104E50006146FCF72CF806466FF0340000EB215059
:104E600024E00000FFFF1F00FFFF0F000000F03FE5
:104E70000000F07F0000404301FCFFFF160D000022
:104E80000000F0FF0000F0BF0000E0410000F04330
:104E9000FFFFEF3F5555D53F0000E03F4715F73F77
:104EA000FE822B6544DF5DF80BAE543EA0F2FF306E
:104EB0000190C1F3130040F07F6141F04051029135
:104EC000FE498842D8BF002004DDFD498142C8BFA9
:104ED000012001DD0D9008E000200D900198401C9C
:104EE00001900298A0F5801002900299F54878444C
:104EF0000B910D9900EBC100D0E900230F933046D0
:104F00000A920B99FBF7ACFDCDE90601DDE90A2118
:104F100030460F9BFBF703FD02460B460020EA4993
:104F2000FBF7A4FD059102460B460090DDE9060162
:104F3000FBF74BFF1490E5488A464FF00008784491
:104F40000299006812904FF0005040EA61010D98FC
:104F50000F9B01EB804000F5002109910A9A1298FD
:104F6000FBF77EFD32460B9BFBF77DFD4246534629
:104F7000FBF72BFF0646029140465146099B129AC9
:104F8000FBF723FFDDE90623FBF76DFD3246029BAD
:104F9000FBF766FD059B009AFBF717FF0091149A3B
:104FA0000490534610461946FBF70FFF064602468B
:104FB000C7480B46029106217844FEF77FF8CDE9F9
:104FC0000510029B324610461946FBF7FEFEDDE94E
:104FD0000532FBF7FAFE0591064653464046194650
:104FE000149AFBF79CFC009B049AFBF7EEFE3246FA
:104FF000059BFBF794FCCDE905104246534610464D
:105000001946FBF7E2FE0022B24B02910A90FBF731
:1050100086FCDDE90532FBF782FC0E464246AD4BCD
:105020004046FBF71DFD029B0A9AFBF719FDDDE9DF
:105030000532FBF718FD424602910A9033461046AE
:105040005146FBF7C2FECDE906015346149A029978
:105050000A98FBF7BAFE8A46029033464246009908
:105060000498FBF7B2FE5346029AFBF758FC8246BF
:105070000B4602460591DDE90601FBF750FCDDE930
:105080000623002088460646FBF7EAFC5246059BAD
:10509000FBF7E9FC824609914FF060428E4B3046A7
:1050A0004146FBF792FE049006918C4A8A4B50468B
:1050B0000999FBF78AFE82460291894A894B30465C
:1050C0004146FBF782FE5246029BFBF728FC864BCB
:1050D0007B440D9A03EBC203D3E90023FBF71FFCCB
:1050E0000E9007910198FBF74AFF0591DDE9061341
:1050F00082460E9A0498FBF712FC7C4A7A440D9B78
:1051000002EBC303D3E9002300930292FBF707FCF1
:105110005246059BFBF703FC002688465246304664
:10512000059BFBF79DFC009B029AFBF799FC069BF5
:10513000049AFBF795FC079B0E9AFBF794FC02463A
:1051400000200B46029038462946FBF73EFE824679
:1051500001912B4638461946029AFBF781FC3246EC
:105160004346FBF732FE5246019BFBF7D8FB07464E
:105170008A463246434629460298FBF726FE0546F4
:105180000E463A465346FBF7CAFB594A88469142B7
:1051900021DBA8EB020353EA000210D12A46334672
:1051A000FBF75EFCCDE90401524A534B38465146A9
:1051B000FBF7B5FBDDE90423FBF714FD21D2022048
:1051C000FEF702F8FDF7E0FF0A46214618B062F349
:1051D0001E01BDE8F08D494B28F000429A4210D3E1
:1051E000474A08EB020353EA00027FF4C6AD2A46A1
:1051F0003346FBF735FC3A465346FBF7F3FC7FF6A4
:10520000BCAD0022019228F000403E493E4A01EB2D
:105210002051824223DA481C4FF4801121FA00F019
:1052200040443A4AC0F30A517A44394BA1F2FF3163
:10523000CB4020EA0303C0F3130040F48010C1F117
:105240001401C84012680190B8F1000FBCBF404281
:10525000019028463146FBF703FC05460E462A46D8
:10526000334638465146FBF75AFB4FF0000842469A
:10527000284B40460591FBF7A8FDCDE90601264ADB
:10528000264B40460599FBF7A0FD009102902A4667
:10529000334640460599FBF7E3FB3A465346FBF796
:1052A000E2FB1F4A1F4BFBF790FD009B029AFBF7A6
:1052B00036FB0746884602460B4635E08E980300CB
:1052C0007AB60B005E0900000000F03F960900006E
:1052D000C40800000000084009C7EE3FFD033ADCA7
:1052E000F5015B14E02F3EBE9C0700006007000044
:1052F00000009040FE822B654715973C00CC904003
:1053000000346F3F01FCFFFF0000E03FAC060000EF
:10531000FFFF0F00432EE63F396CA80C615C20BEF6
:10532000EF39FAFE422EE63FDDE90601FBF7F7FA18
:10533000DDE9062305460E46FBF792FB3A46434657
:10534000FBF791FB0F462A4633460090104619465C
:10535000FBF73BFD824602462E4888460B46052158
:105360007844FDF7ABFE52464346FBF72EFD2A4636
:105370003346FBF778FB80468A463B462846314653
:10538000009AFBF722FD3B46009AFBF7C8FA06910C
:10539000009000224FF0804340465146FBF760FBEF
:1053A0000F460C904246534628463146FBF70DFD0A
:1053B0003B460C9AFBF75AFB069B009AFBF750FB07
:1053C0002A463346FBF74CFB0022134BFBF74BFB03
:1053D000054601980E4601EB00510815002810DC27
:1053E00028463146019AFBF762FDFDF753FE04287B
:1053F00008BFFDF7D1FE28463146019AFBF757FD5D
:1054000005460B4618B02A4658462146BDE8F04DE1
:10541000FBF7DBBC4C0500000000F03F10B50C486A
:105420000078012813D10B480068401C0949086026
:105430000520FFF787F9074800680749096888428F
:1054400005D10520FFF78EF900200149087010BD35
:1054500000010020FC000020F80000202DE9F041B0
:1054600006460024A0460025002729E000BF154875
:10547000008800F020000028F9D01248FDF734FD24
:10548000C5B244B9AA2D1BD1AA222046611C8CB2F8
:105490003254904614E02046611C8CB23554032CE3
:1054A00000D12F4647B1381D844205D1A84501D10E
:1054B000BDE8F0810020FBE708EB050000F0FF08E5
:1054C000D4E70000004C004070B505460E460024AD
:1054D0000CE0295D0748FDF70CFD00BF054800887A
:1054E00000F080000028F9D0601C84B2B442F0DBE8
:1054F00070BD0000004C00407CB50646002500242D
:10550000AA222146641C0DF8012005F1AA00C5B2AB
:1055100013222146641C0DF8012005F11300C5B2C9
:1055200001222146641C0DF80120681CC5B22146E9
:10553000641C0DF80160A819C5B22146641C0DF861
:10554000015021466846FFF7BFFF7CBD2DE9F041C1
:1055500006460F46FBF7C2FC041E0D4618BF01208D
:10556000284320F00040C0F17F6000F1E040C00F10
:105570000ED0301C18BF0120384320F00040C0F18D
:105580007F6000F1E040C00F04BF0120FDF71CFE6A
:1055900020462946BDE8F08102460020002104E0B3
:1055A00032F8113018444B1C99B2FF29F8DD7047CE
:1055B00010B502460B460020002104E032F81140ED
:1055C00020444C1CA1B29942F8DB10BD024800688F
:1055D000401C014908607047BC0000200EB5012145
:1055E0000846FCF735FE40F2E730ADF804000E48FF
:1055F00000680E49B0FBF1F0401E80B2ADF800002B
:105600000020ADF80600ADF8020069464FF080407A
:10561000FDF74AF9012211469007FDF73CF90121F7
:105620008807FDF71BF90EBD4C00002040420F001B
:1056300010B50E480068401C0C490860FDF786F95B
:10564000FFF7ECFE0A480068401C0949086008465C
:105650000068B0F57A7F06D1002008600548006830
:10566000401C04490860FFF72DF810BDA40000207D
:10567000A8000020AC0000202DE9F04105460E46B0
:1056800017461048007810B10120BDE8F0810024D1
:1056900004E0E0B2FFF756F8601C84B2042CF8DB9B
:1056A0000020094908804FF6FF7000EA46000749CC
:1056B00008800748078007480570012001490870E5
:1056C0000020E2E7B0000020B2000020B800002077
:1056D000B4000020B6000020002001490870704787
:1056E000B000002024490978002944D123490978D1
:1056F00021B1012908D002293BD112E05A2802D158
:1057000001211E4A117035E0A12809D14FF4C05182
:105710001B4A118000211B4A11800221174A117077
:1057200028E0194A11884A1C174B1A80174A50540E
:1057300019460988B1F5C05F07D100211A461180CA
:1057400013490988491C124A11800E4A11884A1CC3
:105750000C4B1A800F4A505419460988084A12887F
:10576000914205D10021054A11700121024A1170B0
:1057700000E000BF00BF70477800002074000020E8
:10578000760000207A0000207C000020FB1B002017
:105790007E0000207434002070B503460A460020C5
:1057A00024E0002442F820404FF4807119E0814247
:1057B00015DD00F20114A14211DA03EB4104A41E2D
:1057C000A4EB4004258852F8206003EB4104A4F5C3
:1057D0008054B4F8004E04FB056442F820404C1C91
:1057E000A1B2B1F5007FE2DB441CA0B2B0F5FF7FAF
:1057F000D7DD70BDAA0100ABAA0200ACAA0500AFBC
:10580000AA0600B0AA07020001B4AA07020002B566
:10581000AA07020003B6AA07020004B7AA070200FB
:1058200005B8AA07020006B9AA07020007BAAA0724
:10583000020008BBAA070200AA0B0102B8AA1301C2
:105840001EDCAA1400BEAA1500BF00000000000064
:10585000000000000000F03F000000000000F83FE2
:1058600000000000000000000000004003B8E23F1C
:10587000000000000000000006D0CF43EBFD4C3ECE
:10588000033333333333E33FFFAB6FDBB66DDB3FC3
:105890004D268F515555D53F01411DA96074D13F0B
:1058A00065DBC9934A86CD3FEF4E454A287ECA3F05
:1058B0003E5555555555C53F93BDBE166CC166BF87
:1058C0002CDE25AF6A56113FF16BD2C541BDBBBE80
:1058D000D0A4BE726937663E0000000000000000E0
:1058E0000059000800000020C0010000E40F00087B
:1058F0005C590008C001002000920000B831000887
:1059000061052701020304021B017BA24A462952BA
:105910006D060708090C6910D50204060814080171
:10592000409A0C045A1008138008121022200A16FC
:105930001072591729300919041201120219951A07
:1059400020071301800A1C40C03957135AA52304AD
:0C595000F11907114AF5074AF407019508
:0400000508000131BD
:00000001FF
